{
  "contractName": "MyToken",
  "abi": [
    {
      "inputs": [],
      "stateMutability": "nonpayable",
      "type": "constructor"
    },
    {
      "inputs": [
        {
          "internalType": "address",
          "name": "spender",
          "type": "address"
        },
        {
          "internalType": "uint256",
          "name": "allowance",
          "type": "uint256"
        },
        {
          "internalType": "uint256",
          "name": "needed",
          "type": "uint256"
        }
      ],
      "name": "ERC20InsufficientAllowance",
      "type": "error"
    },
    {
      "inputs": [
        {
          "internalType": "address",
          "name": "sender",
          "type": "address"
        },
        {
          "internalType": "uint256",
          "name": "balance",
          "type": "uint256"
        },
        {
          "internalType": "uint256",
          "name": "needed",
          "type": "uint256"
        }
      ],
      "name": "ERC20InsufficientBalance",
      "type": "error"
    },
    {
      "inputs": [
        {
          "internalType": "address",
          "name": "approver",
          "type": "address"
        }
      ],
      "name": "ERC20InvalidApprover",
      "type": "error"
    },
    {
      "inputs": [
        {
          "internalType": "address",
          "name": "receiver",
          "type": "address"
        }
      ],
      "name": "ERC20InvalidReceiver",
      "type": "error"
    },
    {
      "inputs": [
        {
          "internalType": "address",
          "name": "sender",
          "type": "address"
        }
      ],
      "name": "ERC20InvalidSender",
      "type": "error"
    },
    {
      "inputs": [
        {
          "internalType": "address",
          "name": "spender",
          "type": "address"
        }
      ],
      "name": "ERC20InvalidSpender",
      "type": "error"
    },
    {
      "inputs": [],
      "name": "InvalidInitialization",
      "type": "error"
    },
    {
      "inputs": [],
      "name": "NotInitializing",
      "type": "error"
    },
    {
      "anonymous": false,
      "inputs": [
        {
          "indexed": true,
          "internalType": "address",
          "name": "owner",
          "type": "address"
        },
        {
          "indexed": true,
          "internalType": "address",
          "name": "spender",
          "type": "address"
        },
        {
          "indexed": false,
          "internalType": "uint256",
          "name": "value",
          "type": "uint256"
        }
      ],
      "name": "Approval",
      "type": "event"
    },
    {
      "anonymous": false,
      "inputs": [
        {
          "indexed": false,
          "internalType": "uint64",
          "name": "version",
          "type": "uint64"
        }
      ],
      "name": "Initialized",
      "type": "event"
    },
    {
      "anonymous": false,
      "inputs": [
        {
          "indexed": true,
          "internalType": "address",
          "name": "from",
          "type": "address"
        },
        {
          "indexed": true,
          "internalType": "address",
          "name": "to",
          "type": "address"
        },
        {
          "indexed": false,
          "internalType": "uint256",
          "name": "value",
          "type": "uint256"
        }
      ],
      "name": "Transfer",
      "type": "event"
    },
    {
      "inputs": [],
      "name": "MAX_TOTAL_SUPPLY",
      "outputs": [
        {
          "internalType": "uint256",
          "name": "",
          "type": "uint256"
        }
      ],
      "stateMutability": "view",
      "type": "function",
      "constant": true
    },
    {
      "inputs": [
        {
          "internalType": "address",
          "name": "owner",
          "type": "address"
        },
        {
          "internalType": "address",
          "name": "spender",
          "type": "address"
        }
      ],
      "name": "allowance",
      "outputs": [
        {
          "internalType": "uint256",
          "name": "",
          "type": "uint256"
        }
      ],
      "stateMutability": "view",
      "type": "function",
      "constant": true
    },
    {
      "inputs": [
        {
          "internalType": "address",
          "name": "spender",
          "type": "address"
        },
        {
          "internalType": "uint256",
          "name": "value",
          "type": "uint256"
        }
      ],
      "name": "approve",
      "outputs": [
        {
          "internalType": "bool",
          "name": "",
          "type": "bool"
        }
      ],
      "stateMutability": "nonpayable",
      "type": "function"
    },
    {
      "inputs": [
        {
          "internalType": "address",
          "name": "account",
          "type": "address"
        }
      ],
      "name": "balanceOf",
      "outputs": [
        {
          "internalType": "uint256",
          "name": "",
          "type": "uint256"
        }
      ],
      "stateMutability": "view",
      "type": "function",
      "constant": true
    },
    {
      "inputs": [],
      "name": "decimals",
      "outputs": [
        {
          "internalType": "uint8",
          "name": "",
          "type": "uint8"
        }
      ],
      "stateMutability": "view",
      "type": "function",
      "constant": true
    },
    {
      "inputs": [],
      "name": "name",
      "outputs": [
        {
          "internalType": "string",
          "name": "",
          "type": "string"
        }
      ],
      "stateMutability": "view",
      "type": "function",
      "constant": true
    },
    {
      "inputs": [],
      "name": "symbol",
      "outputs": [
        {
          "internalType": "string",
          "name": "",
          "type": "string"
        }
      ],
      "stateMutability": "view",
      "type": "function",
      "constant": true
    },
    {
      "inputs": [],
      "name": "totalSupply",
      "outputs": [
        {
          "internalType": "uint256",
          "name": "",
          "type": "uint256"
        }
      ],
      "stateMutability": "view",
      "type": "function",
      "constant": true
    },
    {
      "inputs": [
        {
          "internalType": "address",
          "name": "to",
          "type": "address"
        },
        {
          "internalType": "uint256",
          "name": "value",
          "type": "uint256"
        }
      ],
      "name": "transfer",
      "outputs": [
        {
          "internalType": "bool",
          "name": "",
          "type": "bool"
        }
      ],
      "stateMutability": "nonpayable",
      "type": "function"
    },
    {
      "inputs": [
        {
          "internalType": "address",
          "name": "from",
          "type": "address"
        },
        {
          "internalType": "address",
          "name": "to",
          "type": "address"
        },
        {
          "internalType": "uint256",
          "name": "value",
          "type": "uint256"
        }
      ],
      "name": "transferFrom",
      "outputs": [
        {
          "internalType": "bool",
          "name": "",
          "type": "bool"
        }
      ],
      "stateMutability": "nonpayable",
      "type": "function"
    },
    {
      "inputs": [
        {
          "internalType": "address",
          "name": "owner",
          "type": "address"
        }
      ],
      "name": "initialize",
      "outputs": [],
      "stateMutability": "nonpayable",
      "type": "function"
    }
  ],
  "bytecode": "0x608060405234801561000f575f5ffd5b5061001e61002360201b60201c565b610183565b5f61003261012160201b60201c565b9050805f0160089054906101000a900460ff161561007c576040517ff92ee8a900000000000000000000000000000000000000000000000000000000815260040160405180910390fd5b67ffffffffffffffff8016815f015f9054906101000a900467ffffffffffffffff1667ffffffffffffffff161461011e5767ffffffffffffffff815f015f6101000a81548167ffffffffffffffff021916908367ffffffffffffffff1602179055507fc7f505b2f371ae2175ee4913f4499e1f2633a7b5936321eed1cdaeb6115181d267ffffffffffffffff604051610115919061016a565b60405180910390a15b50565b5f7ff0c57e16840df040f15088dc2f81fe391c3923bec73e23a9662efc9c229c6a00905090565b5f67ffffffffffffffff82169050919050565b61016481610148565b82525050565b5f60208201905061017d5f83018461015b565b92915050565b611538806101905f395ff3fe608060405234801561000f575f5ffd5b50600436106100a7575f3560e01c806333039d3d1161006f57806333039d3d1461016557806370a082311461018357806395d89b41146101b3578063a9059cbb146101d1578063c4d66de814610201578063dd62ed3e1461021d576100a7565b806306fdde03146100ab578063095ea7b3146100c957806318160ddd146100f957806323b872dd14610117578063313ce56714610147575b5f5ffd5b6100b361024d565b6040516100c09190610eb0565b60405180910390f35b6100e360048036038101906100de9190610f61565b6102eb565b6040516100f09190610fb9565b60405180910390f35b61010161030d565b60405161010e9190610fe1565b60405180910390f35b610131600480360381019061012c9190610ffa565b610324565b60405161013e9190610fb9565b60405180910390f35b61014f610352565b60405161015c9190611065565b60405180910390f35b61016d61035a565b60405161017a9190610fe1565b60405180910390f35b61019d6004803603810190610198919061107e565b610368565b6040516101aa9190610fe1565b60405180910390f35b6101bb6103bb565b6040516101c89190610eb0565b60405180910390f35b6101eb60048036038101906101e69190610f61565b610459565b6040516101f89190610fb9565b60405180910390f35b61021b6004803603810190610216919061107e565b61047b565b005b610237600480360381019061023291906110a9565b61067b565b6040516102449190610fe1565b60405180910390f35b60605f61025861070b565b905080600301805461026990611114565b80601f016020809104026020016040519081016040528092919081815260200182805461029590611114565b80156102e05780601f106102b7576101008083540402835291602001916102e0565b820191905f5260205f20905b8154815290600101906020018083116102c357829003601f168201915b505050505091505090565b5f5f6102f5610732565b9050610302818585610739565b600191505092915050565b5f5f61031761070b565b9050806002015491505090565b5f5f61032e610732565b905061033b85828561074b565b6103468585856107de565b60019150509392505050565b5f6012905090565b69d3c21bcecceda100000081565b5f5f61037261070b565b9050805f015f8473ffffffffffffffffffffffffffffffffffffffff1673ffffffffffffffffffffffffffffffffffffffff1681526020019081526020015f2054915050919050565b60605f6103c661070b565b90508060040180546103d790611114565b80601f016020809104026020016040519081016040528092919081815260200182805461040390611114565b801561044e5780601f106104255761010080835404028352916020019161044e565b820191905f5260205f20905b81548152906001019060200180831161043157829003601f168201915b505050505091505090565b5f5f610463610732565b90506104708185856107de565b600191505092915050565b5f6104846108ce565b90505f815f0160089054906101000a900460ff161590505f825f015f9054906101000a900467ffffffffffffffff1690505f5f8267ffffffffffffffff161480156104cc5750825b90505f60018367ffffffffffffffff161480156104ff57505f3073ffffffffffffffffffffffffffffffffffffffff163b145b90508115801561050d575080155b15610544576040517ff92ee8a900000000000000000000000000000000000000000000000000000000815260040160405180910390fd5b6001855f015f6101000a81548167ffffffffffffffff021916908367ffffffffffffffff1602179055508315610591576001855f0160086101000a81548160ff0219169083151502179055505b6106056040518060400160405280600781526020017f4d79546f6b656e000000000000000000000000000000000000000000000000008152506040518060400160405280600481526020017f4d4d544b000000000000000000000000000000000000000000000000000000008152506108f5565b6106198669d3c21bcecceda100000061090b565b8315610673575f855f0160086101000a81548160ff0219169083151502179055507fc7f505b2f371ae2175ee4913f4499e1f2633a7b5936321eed1cdaeb6115181d2600160405161066a9190611199565b60405180910390a15b505050505050565b5f5f61068561070b565b9050806001015f8573ffffffffffffffffffffffffffffffffffffffff1673ffffffffffffffffffffffffffffffffffffffff1681526020019081526020015f205f8473ffffffffffffffffffffffffffffffffffffffff1673ffffffffffffffffffffffffffffffffffffffff1681526020019081526020015f205491505092915050565b5f7f52c63247e1f47db19d5ce0460030c497f067ca4cebf71ba98eeadabe20bace00905090565b5f33905090565b610746838383600161098a565b505050565b5f610756848461067b565b90507fffffffffffffffffffffffffffffffffffffffffffffffffffffffffffffffff8110156107d857818110156107c9578281836040517ffb8f41b20000000000000000000000000000000000000000000000000000000081526004016107c0939291906111c1565b60405180910390fd5b6107d784848484035f61098a565b5b50505050565b5f73ffffffffffffffffffffffffffffffffffffffff168373ffffffffffffffffffffffffffffffffffffffff160361084e575f6040517f96c6fd1e00000000000000000000000000000000000000000000000000000000815260040161084591906111f6565b60405180910390fd5b5f73ffffffffffffffffffffffffffffffffffffffff168273ffffffffffffffffffffffffffffffffffffffff16036108be575f6040517fec442f050000000000000000000000000000000000000000000000000000000081526004016108b591906111f6565b60405180910390fd5b6108c9838383610b67565b505050565b5f7ff0c57e16840df040f15088dc2f81fe391c3923bec73e23a9662efc9c229c6a00905090565b6108fd610b77565b6109078282610bb7565b5050565b5f73ffffffffffffffffffffffffffffffffffffffff168273ffffffffffffffffffffffffffffffffffffffff160361097b575f6040517fec442f0500000000000000000000000000000000000000000000000000000000815260040161097291906111f6565b60405180910390fd5b6109865f8383610b67565b5050565b5f61099361070b565b90505f73ffffffffffffffffffffffffffffffffffffffff168573ffffffffffffffffffffffffffffffffffffffff1603610a05575f6040517fe602df050000000000000000000000000000000000000000000000000000000081526004016109fc91906111f6565b60405180910390fd5b5f73ffffffffffffffffffffffffffffffffffffffff168473ffffffffffffffffffffffffffffffffffffffff1603610a75575f6040517f94280d62000000000000000000000000000000000000000000000000000000008152600401610a6c91906111f6565b60405180910390fd5b82816001015f8773ffffffffffffffffffffffffffffffffffffffff1673ffffffffffffffffffffffffffffffffffffffff1681526020019081526020015f205f8673ffffffffffffffffffffffffffffffffffffffff1673ffffffffffffffffffffffffffffffffffffffff1681526020019081526020015f20819055508115610b60578373ffffffffffffffffffffffffffffffffffffffff168573ffffffffffffffffffffffffffffffffffffffff167f8c5be1e5ebec7d5bd14f71427d1e84f3dd0314c0f7b2291e5b200ac8c7c3b92585604051610b579190610fe1565b60405180910390a35b5050505050565b610b72838383610bf3565b505050565b610b7f610e22565b610bb5576040517fd7e6bcf800000000000000000000000000000000000000000000000000000000815260040160405180910390fd5b565b610bbf610b77565b5f610bc861070b565b905082816003019081610bdb91906113d3565b5081816004019081610bed91906113d3565b50505050565b5f610bfc61070b565b90505f73ffffffffffffffffffffffffffffffffffffffff168473ffffffffffffffffffffffffffffffffffffffff1603610c505781816002015f828254610c4491906114cf565b92505081905550610d22565b5f815f015f8673ffffffffffffffffffffffffffffffffffffffff1673ffffffffffffffffffffffffffffffffffffffff1681526020019081526020015f2054905082811015610cdb578481846040517fe450d38c000000000000000000000000000000000000000000000000000000008152600401610cd2939291906111c1565b60405180910390fd5b828103825f015f8773ffffffffffffffffffffffffffffffffffffffff1673ffffffffffffffffffffffffffffffffffffffff1681526020019081526020015f2081905550505b5f73ffffffffffffffffffffffffffffffffffffffff168373ffffffffffffffffffffffffffffffffffffffff1603610d6b5781816002015f8282540392505081905550610db7565b81815f015f8573ffffffffffffffffffffffffffffffffffffffff1673ffffffffffffffffffffffffffffffffffffffff1681526020019081526020015f205f82825401925050819055505b8273ffffffffffffffffffffffffffffffffffffffff168473ffffffffffffffffffffffffffffffffffffffff167fddf252ad1be2c89b69c2b068fc378daa952ba7f163c4a11628f55a4df523b3ef84604051610e149190610fe1565b60405180910390a350505050565b5f610e2b6108ce565b5f0160089054906101000a900460ff16905090565b5f81519050919050565b5f82825260208201905092915050565b8281835e5f83830152505050565b5f601f19601f8301169050919050565b5f610e8282610e40565b610e8c8185610e4a565b9350610e9c818560208601610e5a565b610ea581610e68565b840191505092915050565b5f6020820190508181035f830152610ec88184610e78565b905092915050565b5f5ffd5b5f73ffffffffffffffffffffffffffffffffffffffff82169050919050565b5f610efd82610ed4565b9050919050565b610f0d81610ef3565b8114610f17575f5ffd5b50565b5f81359050610f2881610f04565b92915050565b5f819050919050565b610f4081610f2e565b8114610f4a575f5ffd5b50565b5f81359050610f5b81610f37565b92915050565b5f5f60408385031215610f7757610f76610ed0565b5b5f610f8485828601610f1a565b9250506020610f9585828601610f4d565b9150509250929050565b5f8115159050919050565b610fb381610f9f565b82525050565b5f602082019050610fcc5f830184610faa565b92915050565b610fdb81610f2e565b82525050565b5f602082019050610ff45f830184610fd2565b92915050565b5f5f5f6060848603121561101157611010610ed0565b5b5f61101e86828701610f1a565b935050602061102f86828701610f1a565b925050604061104086828701610f4d565b9150509250925092565b5f60ff82169050919050565b61105f8161104a565b82525050565b5f6020820190506110785f830184611056565b92915050565b5f6020828403121561109357611092610ed0565b5b5f6110a084828501610f1a565b91505092915050565b5f5f604083850312156110bf576110be610ed0565b5b5f6110cc85828601610f1a565b92505060206110dd85828601610f1a565b9150509250929050565b7f4e487b71000000000000000000000000000000000000000000000000000000005f52602260045260245ffd5b5f600282049050600182168061112b57607f821691505b60208210810361113e5761113d6110e7565b5b50919050565b5f819050919050565b5f67ffffffffffffffff82169050919050565b5f819050919050565b5f61118361117e61117984611144565b611160565b61114d565b9050919050565b61119381611169565b82525050565b5f6020820190506111ac5f83018461118a565b92915050565b6111bb81610ef3565b82525050565b5f6060820190506111d45f8301866111b2565b6111e16020830185610fd2565b6111ee6040830184610fd2565b949350505050565b5f6020820190506112095f8301846111b2565b92915050565b7f4e487b71000000000000000000000000000000000000000000000000000000005f52604160045260245ffd5b5f819050815f5260205f209050919050565b5f6020601f8301049050919050565b5f82821b905092915050565b5f600883026112987fffffffffffffffffffffffffffffffffffffffffffffffffffffffffffffffff8261125d565b6112a2868361125d565b95508019841693508086168417925050509392505050565b5f6112d46112cf6112ca84610f2e565b611160565b610f2e565b9050919050565b5f819050919050565b6112ed836112ba565b6113016112f9826112db565b848454611269565b825550505050565b5f5f905090565b611318611309565b6113238184846112e4565b505050565b5b818110156113465761133b5f82611310565b600181019050611329565b5050565b601f82111561138b5761135c8161123c565b6113658461124e565b81016020851015611374578190505b6113886113808561124e565b830182611328565b50505b505050565b5f82821c905092915050565b5f6113ab5f1984600802611390565b1980831691505092915050565b5f6113c3838361139c565b9150826002028217905092915050565b6113dc82610e40565b67ffffffffffffffff8111156113f5576113f461120f565b5b6113ff8254611114565b61140a82828561134a565b5f60209050601f83116001811461143b575f8415611429578287015190505b61143385826113b8565b86555061149a565b601f1984166114498661123c565b5f5b828110156114705784890151825560018201915060208501945060208101905061144b565b8683101561148d5784890151611489601f89168261139c565b8355505b6001600288020188555050505b505050505050565b7f4e487b71000000000000000000000000000000000000000000000000000000005f52601160045260245ffd5b5f6114d982610f2e565b91506114e483610f2e565b92508282019050808211156114fc576114fb6114a2565b5b9291505056fea2646970667358221220cced1d4055e0c4e85b80b942c0829556c995a37c07c9d5684e6d6f580032f27464736f6c634300081c0033",
  "immutableReferences": {},
  "source": "// SPDX-License-Identifier: MIT\r\npragma solidity ^0.8.21;\r\n\r\nimport \"@openzeppelin/contracts-upgradeable/token/ERC20/ERC20Upgradeable.sol\";\r\nimport \"@openzeppelin/contracts-upgradeable/proxy/utils/Initializable.sol\";\r\n\r\ncontract MyToken is Initializable, ERC20Upgradeable {\r\n\r\n  uint256 public constant MAX_TOTAL_SUPPLY = 1000000 * 10 ** 18; \r\n  \r\n  /// @custom:oz-upgrades-unsafe-allow constructor\r\n  constructor() {\r\n    _disableInitializers();\r\n  }\r\n\r\n  function initialize(\r\n    address owner\r\n  ) public initializer {\r\n    __ERC20_init(\"MyToken\", \"MMTK\");\r\n    _mint(owner, MAX_TOTAL_SUPPLY);\r\n  }\r\n\r\n  function _update(\r\n    address from,\r\n    address to,\r\n    uint256 amount\r\n  ) internal virtual override(ERC20Upgradeable) {\r\n    super._update(from, to, amount);\r\n  }\r\n\r\n}\r\n",
  "sourcePath": "C:\\Users\\marco\\Desktop\\omof\\CODE GITHUB PUBLIC\\11 - Trasparent proxy\\contracts\\MyToken_V1.sol",
  "compiler": {
    "name": "solc",
    "version": "0.8.28+commit.7893614a.Emscripten.clang"
  },
  "schemaVersion": "3.4.16",
  "updatedAt": "2025-03-18T14:32:42.458Z",
  "networkType": "ethereum",
  "devdoc": {
    "errors": {
      "ERC20InsufficientAllowance(address,uint256,uint256)": [
        {
          "details": "Indicates a failure with the `spender`s `allowance`. Used in transfers.",
          "params": {
            "allowance": "Amount of tokens a `spender` is allowed to operate with.",
            "needed": "Minimum amount required to perform a transfer.",
            "spender": "Address that may be allowed to operate on tokens without being their owner."
          }
        }
      ],
      "ERC20InsufficientBalance(address,uint256,uint256)": [
        {
          "details": "Indicates an error related to the current `balance` of a `sender`. Used in transfers.",
          "params": {
            "balance": "Current balance for the interacting account.",
            "needed": "Minimum amount required to perform a transfer.",
            "sender": "Address whose tokens are being transferred."
          }
        }
      ],
      "ERC20InvalidApprover(address)": [
        {
          "details": "Indicates a failure with the `approver` of a token to be approved. Used in approvals.",
          "params": {
            "approver": "Address initiating an approval operation."
          }
        }
      ],
      "ERC20InvalidReceiver(address)": [
        {
          "details": "Indicates a failure with the token `receiver`. Used in transfers.",
          "params": {
            "receiver": "Address to which tokens are being transferred."
          }
        }
      ],
      "ERC20InvalidSender(address)": [
        {
          "details": "Indicates a failure with the token `sender`. Used in transfers.",
          "params": {
            "sender": "Address whose tokens are being transferred."
          }
        }
      ],
      "ERC20InvalidSpender(address)": [
        {
          "details": "Indicates a failure with the `spender` to be approved. Used in approvals.",
          "params": {
            "spender": "Address that may be allowed to operate on tokens without being their owner."
          }
        }
      ],
      "InvalidInitialization()": [
        {
          "details": "The contract is already initialized."
        }
      ],
      "NotInitializing()": [
        {
          "details": "The contract is not initializing."
        }
      ]
    },
    "events": {
      "Approval(address,address,uint256)": {
        "details": "Emitted when the allowance of a `spender` for an `owner` is set by a call to {approve}. `value` is the new allowance."
      },
      "Initialized(uint64)": {
        "details": "Triggered when the contract has been initialized or reinitialized."
      },
      "Transfer(address,address,uint256)": {
        "details": "Emitted when `value` tokens are moved from one account (`from`) to another (`to`). Note that `value` may be zero."
      }
    },
    "kind": "dev",
    "methods": {
      "allowance(address,address)": {
        "details": "See {IERC20-allowance}."
      },
      "approve(address,uint256)": {
        "details": "See {IERC20-approve}. NOTE: If `value` is the maximum `uint256`, the allowance is not updated on `transferFrom`. This is semantically equivalent to an infinite approval. Requirements: - `spender` cannot be the zero address."
      },
      "balanceOf(address)": {
        "details": "See {IERC20-balanceOf}."
      },
      "constructor": {
        "custom:oz-upgrades-unsafe-allow": "constructor"
      },
      "decimals()": {
        "details": "Returns the number of decimals used to get its user representation. For example, if `decimals` equals `2`, a balance of `505` tokens should be displayed to a user as `5.05` (`505 / 10 ** 2`). Tokens usually opt for a value of 18, imitating the relationship between Ether and Wei. This is the default value returned by this function, unless it's overridden. NOTE: This information is only used for _display_ purposes: it in no way affects any of the arithmetic of the contract, including {IERC20-balanceOf} and {IERC20-transfer}."
      },
      "name()": {
        "details": "Returns the name of the token."
      },
      "symbol()": {
        "details": "Returns the symbol of the token, usually a shorter version of the name."
      },
      "totalSupply()": {
        "details": "See {IERC20-totalSupply}."
      },
      "transfer(address,uint256)": {
        "details": "See {IERC20-transfer}. Requirements: - `to` cannot be the zero address. - the caller must have a balance of at least `value`."
      },
      "transferFrom(address,address,uint256)": {
        "details": "See {IERC20-transferFrom}. Skips emitting an {Approval} event indicating an allowance update. This is not required by the ERC. See {xref-ERC20-_approve-address-address-uint256-bool-}[_approve]. NOTE: Does not update the allowance if the current allowance is the maximum `uint256`. Requirements: - `from` and `to` cannot be the zero address. - `from` must have a balance of at least `value`. - the caller must have allowance for ``from``'s tokens of at least `value`."
      }
    },
    "version": 1
  },
  "userdoc": {
    "kind": "user",
    "methods": {},
    "version": 1
  }
}