{
  "contractName": "MyTokenV2",
  "abi": [
    {
      "inputs": [],
      "stateMutability": "nonpayable",
      "type": "constructor"
    },
    {
      "inputs": [
        {
          "internalType": "address",
          "name": "spender",
          "type": "address"
        },
        {
          "internalType": "uint256",
          "name": "allowance",
          "type": "uint256"
        },
        {
          "internalType": "uint256",
          "name": "needed",
          "type": "uint256"
        }
      ],
      "name": "ERC20InsufficientAllowance",
      "type": "error"
    },
    {
      "inputs": [
        {
          "internalType": "address",
          "name": "sender",
          "type": "address"
        },
        {
          "internalType": "uint256",
          "name": "balance",
          "type": "uint256"
        },
        {
          "internalType": "uint256",
          "name": "needed",
          "type": "uint256"
        }
      ],
      "name": "ERC20InsufficientBalance",
      "type": "error"
    },
    {
      "inputs": [
        {
          "internalType": "address",
          "name": "approver",
          "type": "address"
        }
      ],
      "name": "ERC20InvalidApprover",
      "type": "error"
    },
    {
      "inputs": [
        {
          "internalType": "address",
          "name": "receiver",
          "type": "address"
        }
      ],
      "name": "ERC20InvalidReceiver",
      "type": "error"
    },
    {
      "inputs": [
        {
          "internalType": "address",
          "name": "sender",
          "type": "address"
        }
      ],
      "name": "ERC20InvalidSender",
      "type": "error"
    },
    {
      "inputs": [
        {
          "internalType": "address",
          "name": "spender",
          "type": "address"
        }
      ],
      "name": "ERC20InvalidSpender",
      "type": "error"
    },
    {
      "inputs": [],
      "name": "InvalidInitialization",
      "type": "error"
    },
    {
      "inputs": [],
      "name": "NotInitializing",
      "type": "error"
    },
    {
      "anonymous": false,
      "inputs": [
        {
          "indexed": true,
          "internalType": "address",
          "name": "owner",
          "type": "address"
        },
        {
          "indexed": true,
          "internalType": "address",
          "name": "spender",
          "type": "address"
        },
        {
          "indexed": false,
          "internalType": "uint256",
          "name": "value",
          "type": "uint256"
        }
      ],
      "name": "Approval",
      "type": "event"
    },
    {
      "anonymous": false,
      "inputs": [
        {
          "indexed": false,
          "internalType": "uint64",
          "name": "version",
          "type": "uint64"
        }
      ],
      "name": "Initialized",
      "type": "event"
    },
    {
      "anonymous": false,
      "inputs": [
        {
          "indexed": true,
          "internalType": "address",
          "name": "from",
          "type": "address"
        },
        {
          "indexed": true,
          "internalType": "address",
          "name": "to",
          "type": "address"
        },
        {
          "indexed": false,
          "internalType": "uint256",
          "name": "value",
          "type": "uint256"
        }
      ],
      "name": "Transfer",
      "type": "event"
    },
    {
      "inputs": [],
      "name": "ADD_SUPPLY",
      "outputs": [
        {
          "internalType": "uint256",
          "name": "",
          "type": "uint256"
        }
      ],
      "stateMutability": "view",
      "type": "function",
      "constant": true
    },
    {
      "inputs": [],
      "name": "MAX_TOTAL_SUPPLY",
      "outputs": [
        {
          "internalType": "uint256",
          "name": "",
          "type": "uint256"
        }
      ],
      "stateMutability": "view",
      "type": "function",
      "constant": true
    },
    {
      "inputs": [
        {
          "internalType": "address",
          "name": "owner",
          "type": "address"
        },
        {
          "internalType": "address",
          "name": "spender",
          "type": "address"
        }
      ],
      "name": "allowance",
      "outputs": [
        {
          "internalType": "uint256",
          "name": "",
          "type": "uint256"
        }
      ],
      "stateMutability": "view",
      "type": "function",
      "constant": true
    },
    {
      "inputs": [
        {
          "internalType": "address",
          "name": "spender",
          "type": "address"
        },
        {
          "internalType": "uint256",
          "name": "value",
          "type": "uint256"
        }
      ],
      "name": "approve",
      "outputs": [
        {
          "internalType": "bool",
          "name": "",
          "type": "bool"
        }
      ],
      "stateMutability": "nonpayable",
      "type": "function"
    },
    {
      "inputs": [
        {
          "internalType": "address",
          "name": "account",
          "type": "address"
        }
      ],
      "name": "balanceOf",
      "outputs": [
        {
          "internalType": "uint256",
          "name": "",
          "type": "uint256"
        }
      ],
      "stateMutability": "view",
      "type": "function",
      "constant": true
    },
    {
      "inputs": [],
      "name": "decimals",
      "outputs": [
        {
          "internalType": "uint8",
          "name": "",
          "type": "uint8"
        }
      ],
      "stateMutability": "view",
      "type": "function",
      "constant": true
    },
    {
      "inputs": [
        {
          "internalType": "address",
          "name": "owner",
          "type": "address"
        }
      ],
      "name": "initialize",
      "outputs": [],
      "stateMutability": "nonpayable",
      "type": "function"
    },
    {
      "inputs": [],
      "name": "name",
      "outputs": [
        {
          "internalType": "string",
          "name": "",
          "type": "string"
        }
      ],
      "stateMutability": "view",
      "type": "function",
      "constant": true
    },
    {
      "inputs": [],
      "name": "symbol",
      "outputs": [
        {
          "internalType": "string",
          "name": "",
          "type": "string"
        }
      ],
      "stateMutability": "view",
      "type": "function",
      "constant": true
    },
    {
      "inputs": [],
      "name": "totalSupply",
      "outputs": [
        {
          "internalType": "uint256",
          "name": "",
          "type": "uint256"
        }
      ],
      "stateMutability": "view",
      "type": "function",
      "constant": true
    },
    {
      "inputs": [],
      "name": "tradingEnabled",
      "outputs": [
        {
          "internalType": "bool",
          "name": "",
          "type": "bool"
        }
      ],
      "stateMutability": "view",
      "type": "function",
      "constant": true
    },
    {
      "inputs": [
        {
          "internalType": "address",
          "name": "to",
          "type": "address"
        },
        {
          "internalType": "uint256",
          "name": "value",
          "type": "uint256"
        }
      ],
      "name": "transfer",
      "outputs": [
        {
          "internalType": "bool",
          "name": "",
          "type": "bool"
        }
      ],
      "stateMutability": "nonpayable",
      "type": "function"
    },
    {
      "inputs": [
        {
          "internalType": "address",
          "name": "from",
          "type": "address"
        },
        {
          "internalType": "address",
          "name": "to",
          "type": "address"
        },
        {
          "internalType": "uint256",
          "name": "value",
          "type": "uint256"
        }
      ],
      "name": "transferFrom",
      "outputs": [
        {
          "internalType": "bool",
          "name": "",
          "type": "bool"
        }
      ],
      "stateMutability": "nonpayable",
      "type": "function"
    },
    {
      "inputs": [
        {
          "internalType": "address",
          "name": "owner",
          "type": "address"
        }
      ],
      "name": "initializeV2",
      "outputs": [],
      "stateMutability": "nonpayable",
      "type": "function"
    }
  ],
  "bytecode": "0x608060405234801561000f575f5ffd5b5061001e61003160201b60201c565b61002c61003160201b60201c565b610191565b5f61004061012f60201b60201c565b9050805f0160089054906101000a900460ff161561008a576040517ff92ee8a900000000000000000000000000000000000000000000000000000000815260040160405180910390fd5b67ffffffffffffffff8016815f015f9054906101000a900467ffffffffffffffff1667ffffffffffffffff161461012c5767ffffffffffffffff815f015f6101000a81548167ffffffffffffffff021916908367ffffffffffffffff1602179055507fc7f505b2f371ae2175ee4913f4499e1f2633a7b5936321eed1cdaeb6115181d267ffffffffffffffff6040516101239190610178565b60405180910390a15b50565b5f7ff0c57e16840df040f15088dc2f81fe391c3923bec73e23a9662efc9c229c6a00905090565b5f67ffffffffffffffff82169050919050565b61017281610156565b82525050565b5f60208201905061018b5f830184610169565b92915050565b61189a8061019e5f395ff3fe608060405234801561000f575f5ffd5b50600436106100e8575f3560e01c80634ada218b1161008a578063a9059cbb11610064578063a9059cbb1461024c578063c4d66de81461027c578063dd62ed3e14610298578063ebef227a146102c8576100e8565b80634ada218b146101e057806370a08231146101fe57806395d89b411461022e576100e8565b806323b872dd116100c657806323b872dd1461015857806329b6eca914610188578063313ce567146101a457806333039d3d146101c2576100e8565b806306fdde03146100ec578063095ea7b31461010a57806318160ddd1461013a575b5f5ffd5b6100f46102e6565b6040516101019190611182565b60405180910390f35b610124600480360381019061011f9190611233565b610384565b604051610131919061128b565b60405180910390f35b6101426103a6565b60405161014f91906112b3565b60405180910390f35b610172600480360381019061016d91906112cc565b6103bd565b60405161017f919061128b565b60405180910390f35b6101a2600480360381019061019d919061131c565b6103eb565b005b6101ac61053d565b6040516101b99190611362565b60405180910390f35b6101ca610545565b6040516101d791906112b3565b60405180910390f35b6101e8610553565b6040516101f5919061128b565b60405180910390f35b6102186004803603810190610213919061131c565b610564565b60405161022591906112b3565b60405180910390f35b6102366105b7565b6040516102439190611182565b60405180910390f35b61026660048036038101906102619190611233565b610655565b604051610273919061128b565b60405180910390f35b6102966004803603810190610291919061131c565b610677565b005b6102b260048036038101906102ad919061137b565b610877565b6040516102bf91906112b3565b60405180910390f35b6102d0610907565b6040516102dd91906112b3565b60405180910390f35b60605f6102f1610914565b9050806003018054610302906113e6565b80601f016020809104026020016040519081016040528092919081815260200182805461032e906113e6565b80156103795780601f1061035057610100808354040283529160200191610379565b820191905f5260205f20905b81548152906001019060200180831161035c57829003601f168201915b505050505091505090565b5f5f61038e61093b565b905061039b818585610942565b600191505092915050565b5f5f6103b0610914565b9050806002015491505090565b5f5f6103c761093b565b90506103d4858285610954565b6103df8585856109e7565b60019150509392505050565b60025f6103f6610ad7565b9050805f0160089054906101000a900460ff168061043e57508167ffffffffffffffff16815f015f9054906101000a900467ffffffffffffffff1667ffffffffffffffff1610155b15610475576040517ff92ee8a900000000000000000000000000000000000000000000000000000000815260040160405180910390fd5b81815f015f6101000a81548167ffffffffffffffff021916908367ffffffffffffffff1602179055506001815f0160086101000a81548160ff02191690831515021790555060015f5f6101000a81548160ff0219169083151502179055506104e683683635c9adc5dea00000610afe565b5f815f0160086101000a81548160ff0219169083151502179055507fc7f505b2f371ae2175ee4913f4499e1f2633a7b5936321eed1cdaeb6115181d2826040516105309190611438565b60405180910390a1505050565b5f6012905090565b69d3c21bcecceda100000081565b5f5f9054906101000a900460ff1681565b5f5f61056e610914565b9050805f015f8473ffffffffffffffffffffffffffffffffffffffff1673ffffffffffffffffffffffffffffffffffffffff1681526020019081526020015f2054915050919050565b60605f6105c2610914565b90508060040180546105d3906113e6565b80601f01602080910402602001604051908101604052809291908181526020018280546105ff906113e6565b801561064a5780601f106106215761010080835404028352916020019161064a565b820191905f5260205f20905b81548152906001019060200180831161062d57829003601f168201915b505050505091505090565b5f5f61065f61093b565b905061066c8185856109e7565b600191505092915050565b5f610680610ad7565b90505f815f0160089054906101000a900460ff161590505f825f015f9054906101000a900467ffffffffffffffff1690505f5f8267ffffffffffffffff161480156106c85750825b90505f60018367ffffffffffffffff161480156106fb57505f3073ffffffffffffffffffffffffffffffffffffffff163b145b905081158015610709575080155b15610740576040517ff92ee8a900000000000000000000000000000000000000000000000000000000815260040160405180910390fd5b6001855f015f6101000a81548167ffffffffffffffff021916908367ffffffffffffffff160217905550831561078d576001855f0160086101000a81548160ff0219169083151502179055505b6108016040518060400160405280600781526020017f4d79546f6b656e000000000000000000000000000000000000000000000000008152506040518060400160405280600481526020017f4d4d544b00000000000000000000000000000000000000000000000000000000815250610b7d565b6108158669d3c21bcecceda1000000610afe565b831561086f575f855f0160086101000a81548160ff0219169083151502179055507fc7f505b2f371ae2175ee4913f4499e1f2633a7b5936321eed1cdaeb6115181d260016040516108669190611493565b60405180910390a15b505050505050565b5f5f610881610914565b9050806001015f8573ffffffffffffffffffffffffffffffffffffffff1673ffffffffffffffffffffffffffffffffffffffff1681526020019081526020015f205f8473ffffffffffffffffffffffffffffffffffffffff1673ffffffffffffffffffffffffffffffffffffffff1681526020019081526020015f205491505092915050565b683635c9adc5dea0000081565b5f7f52c63247e1f47db19d5ce0460030c497f067ca4cebf71ba98eeadabe20bace00905090565b5f33905090565b61094f8383836001610b93565b505050565b5f61095f8484610877565b90507fffffffffffffffffffffffffffffffffffffffffffffffffffffffffffffffff8110156109e157818110156109d2578281836040517ffb8f41b20000000000000000000000000000000000000000000000000000000081526004016109c9939291906114bb565b60405180910390fd5b6109e084848484035f610b93565b5b50505050565b5f73ffffffffffffffffffffffffffffffffffffffff168373ffffffffffffffffffffffffffffffffffffffff1603610a57575f6040517f96c6fd1e000000000000000000000000000000000000000000000000000000008152600401610a4e91906114f0565b60405180910390fd5b5f73ffffffffffffffffffffffffffffffffffffffff168273ffffffffffffffffffffffffffffffffffffffff1603610ac7575f6040517fec442f05000000000000000000000000000000000000000000000000000000008152600401610abe91906114f0565b60405180910390fd5b610ad2838383610d70565b505050565b5f7ff0c57e16840df040f15088dc2f81fe391c3923bec73e23a9662efc9c229c6a00905090565b5f73ffffffffffffffffffffffffffffffffffffffff168273ffffffffffffffffffffffffffffffffffffffff1603610b6e575f6040517fec442f05000000000000000000000000000000000000000000000000000000008152600401610b6591906114f0565b60405180910390fd5b610b795f8383610d70565b5050565b610b85610e39565b610b8f8282610e79565b5050565b5f610b9c610914565b90505f73ffffffffffffffffffffffffffffffffffffffff168573ffffffffffffffffffffffffffffffffffffffff1603610c0e575f6040517fe602df05000000000000000000000000000000000000000000000000000000008152600401610c0591906114f0565b60405180910390fd5b5f73ffffffffffffffffffffffffffffffffffffffff168473ffffffffffffffffffffffffffffffffffffffff1603610c7e575f6040517f94280d62000000000000000000000000000000000000000000000000000000008152600401610c7591906114f0565b60405180910390fd5b82816001015f8773ffffffffffffffffffffffffffffffffffffffff1673ffffffffffffffffffffffffffffffffffffffff1681526020019081526020015f205f8673ffffffffffffffffffffffffffffffffffffffff1673ffffffffffffffffffffffffffffffffffffffff1681526020019081526020015f20819055508115610d69578373ffffffffffffffffffffffffffffffffffffffff168573ffffffffffffffffffffffffffffffffffffffff167f8c5be1e5ebec7d5bd14f71427d1e84f3dd0314c0f7b2291e5b200ac8c7c3b92585604051610d6091906112b3565b60405180910390a35b5050505050565b5f5f9054906101000a900460ff1680610db457505f73ffffffffffffffffffffffffffffffffffffffff168373ffffffffffffffffffffffffffffffffffffffff16145b80610dea57505f73ffffffffffffffffffffffffffffffffffffffff168273ffffffffffffffffffffffffffffffffffffffff16145b610e29576040517f08c379a0000000000000000000000000000000000000000000000000000000008152600401610e2090611553565b60405180910390fd5b610e34838383610eb5565b505050565b610e41610ec5565b610e77576040517fd7e6bcf800000000000000000000000000000000000000000000000000000000815260040160405180910390fd5b565b610e81610e39565b5f610e8a610914565b905082816003019081610e9d9190611735565b5081816004019081610eaf9190611735565b50505050565b610ec0838383610ee3565b505050565b5f610ece610ad7565b5f0160089054906101000a900460ff16905090565b5f610eec610914565b90505f73ffffffffffffffffffffffffffffffffffffffff168473ffffffffffffffffffffffffffffffffffffffff1603610f405781816002015f828254610f349190611831565b92505081905550611012565b5f815f015f8673ffffffffffffffffffffffffffffffffffffffff1673ffffffffffffffffffffffffffffffffffffffff1681526020019081526020015f2054905082811015610fcb578481846040517fe450d38c000000000000000000000000000000000000000000000000000000008152600401610fc2939291906114bb565b60405180910390fd5b828103825f015f8773ffffffffffffffffffffffffffffffffffffffff1673ffffffffffffffffffffffffffffffffffffffff1681526020019081526020015f2081905550505b5f73ffffffffffffffffffffffffffffffffffffffff168373ffffffffffffffffffffffffffffffffffffffff160361105b5781816002015f82825403925050819055506110a7565b81815f015f8573ffffffffffffffffffffffffffffffffffffffff1673ffffffffffffffffffffffffffffffffffffffff1681526020019081526020015f205f82825401925050819055505b8273ffffffffffffffffffffffffffffffffffffffff168473ffffffffffffffffffffffffffffffffffffffff167fddf252ad1be2c89b69c2b068fc378daa952ba7f163c4a11628f55a4df523b3ef8460405161110491906112b3565b60405180910390a350505050565b5f81519050919050565b5f82825260208201905092915050565b8281835e5f83830152505050565b5f601f19601f8301169050919050565b5f61115482611112565b61115e818561111c565b935061116e81856020860161112c565b6111778161113a565b840191505092915050565b5f6020820190508181035f83015261119a818461114a565b905092915050565b5f5ffd5b5f73ffffffffffffffffffffffffffffffffffffffff82169050919050565b5f6111cf826111a6565b9050919050565b6111df816111c5565b81146111e9575f5ffd5b50565b5f813590506111fa816111d6565b92915050565b5f819050919050565b61121281611200565b811461121c575f5ffd5b50565b5f8135905061122d81611209565b92915050565b5f5f60408385031215611249576112486111a2565b5b5f611256858286016111ec565b92505060206112678582860161121f565b9150509250929050565b5f8115159050919050565b61128581611271565b82525050565b5f60208201905061129e5f83018461127c565b92915050565b6112ad81611200565b82525050565b5f6020820190506112c65f8301846112a4565b92915050565b5f5f5f606084860312156112e3576112e26111a2565b5b5f6112f0868287016111ec565b9350506020611301868287016111ec565b92505060406113128682870161121f565b9150509250925092565b5f60208284031215611331576113306111a2565b5b5f61133e848285016111ec565b91505092915050565b5f60ff82169050919050565b61135c81611347565b82525050565b5f6020820190506113755f830184611353565b92915050565b5f5f60408385031215611391576113906111a2565b5b5f61139e858286016111ec565b92505060206113af858286016111ec565b9150509250929050565b7f4e487b71000000000000000000000000000000000000000000000000000000005f52602260045260245ffd5b5f60028204905060018216806113fd57607f821691505b6020821081036114105761140f6113b9565b5b50919050565b5f67ffffffffffffffff82169050919050565b61143281611416565b82525050565b5f60208201905061144b5f830184611429565b92915050565b5f819050919050565b5f819050919050565b5f61147d61147861147384611451565b61145a565b611416565b9050919050565b61148d81611463565b82525050565b5f6020820190506114a65f830184611484565b92915050565b6114b5816111c5565b82525050565b5f6060820190506114ce5f8301866114ac565b6114db60208301856112a4565b6114e860408301846112a4565b949350505050565b5f6020820190506115035f8301846114ac565b92915050565b7f54726164696e67206973206e6f7420656e61626c6564000000000000000000005f82015250565b5f61153d60168361111c565b915061154882611509565b602082019050919050565b5f6020820190508181035f83015261156a81611531565b9050919050565b7f4e487b71000000000000000000000000000000000000000000000000000000005f52604160045260245ffd5b5f819050815f5260205f209050919050565b5f6020601f8301049050919050565b5f82821b905092915050565b5f600883026115fa7fffffffffffffffffffffffffffffffffffffffffffffffffffffffffffffffff826115bf565b61160486836115bf565b95508019841693508086168417925050509392505050565b5f61163661163161162c84611200565b61145a565b611200565b9050919050565b5f819050919050565b61164f8361161c565b61166361165b8261163d565b8484546115cb565b825550505050565b5f5f905090565b61167a61166b565b611685818484611646565b505050565b5b818110156116a85761169d5f82611672565b60018101905061168b565b5050565b601f8211156116ed576116be8161159e565b6116c7846115b0565b810160208510156116d6578190505b6116ea6116e2856115b0565b83018261168a565b50505b505050565b5f82821c905092915050565b5f61170d5f19846008026116f2565b1980831691505092915050565b5f61172583836116fe565b9150826002028217905092915050565b61173e82611112565b67ffffffffffffffff81111561175757611756611571565b5b61176182546113e6565b61176c8282856116ac565b5f60209050601f83116001811461179d575f841561178b578287015190505b611795858261171a565b8655506117fc565b601f1984166117ab8661159e565b5f5b828110156117d2578489015182556001820191506020850194506020810190506117ad565b868310156117ef57848901516117eb601f8916826116fe565b8355505b6001600288020188555050505b505050505050565b7f4e487b71000000000000000000000000000000000000000000000000000000005f52601160045260245ffd5b5f61183b82611200565b915061184683611200565b925082820190508082111561185e5761185d611804565b5b9291505056fea26469706673582212201d8443e0577b502745f254f1b05d88ad7d3cc9837b7e7148f0b29457a1ccea2a64736f6c634300081c0033",
  "immutableReferences": {},
  "source": "// SPDX-License-Identifier: MIT\r\npragma solidity ^0.8.21;\r\n\r\nimport \"./MyToken_V1.sol\";\r\n\r\ncontract MyTokenV2 is MyToken {\r\n\r\n  uint256 public constant ADD_SUPPLY = 1000 * 10 ** 18; \r\n  bool public tradingEnabled;\r\n\r\n  /// @custom:oz-upgrades-unsafe-allow constructor\r\n  constructor() {\r\n    _disableInitializers();\r\n  }\r\n\r\n  function initializeV2(\r\n    address owner\r\n  ) public reinitializer(2) {\r\n    // Aggiornamenti specifici della V2\r\n    tradingEnabled = true;\r\n\r\n    // Opzionale: trasferisci il controllo a owner se necessario\r\n    // Qui non serve, ma lo includo come esempio\r\n    _mint(owner, ADD_SUPPLY); // Chiamata dummy per dimostrare compatibilit\r\n  }\r\n\r\n\r\n\r\n  // Sovrascrivi _update per aggiungere il controllo su tradingEnabled\r\n  function _update(\r\n    address from,\r\n    address to,\r\n    uint256 amount\r\n  ) internal virtual override {\r\n    require(tradingEnabled || from == address(0) || to == address(0), \"Trading is not enabled\");\r\n    super._update(from, to, amount);\r\n  }\r\n}",
  "sourcePath": "C:\\Users\\marco\\Desktop\\omof\\CODE GITHUB PUBLIC\\11 - Trasparent proxy\\contracts\\MyToken_V2.sol",
  "compiler": {
    "name": "solc",
    "version": "0.8.28+commit.7893614a.Emscripten.clang"
  },
  "schemaVersion": "3.4.16",
  "updatedAt": "2025-03-18T14:32:42.475Z",
  "networkType": "ethereum",
  "devdoc": {
    "errors": {
      "ERC20InsufficientAllowance(address,uint256,uint256)": [
        {
          "details": "Indicates a failure with the `spender`s `allowance`. Used in transfers.",
          "params": {
            "allowance": "Amount of tokens a `spender` is allowed to operate with.",
            "needed": "Minimum amount required to perform a transfer.",
            "spender": "Address that may be allowed to operate on tokens without being their owner."
          }
        }
      ],
      "ERC20InsufficientBalance(address,uint256,uint256)": [
        {
          "details": "Indicates an error related to the current `balance` of a `sender`. Used in transfers.",
          "params": {
            "balance": "Current balance for the interacting account.",
            "needed": "Minimum amount required to perform a transfer.",
            "sender": "Address whose tokens are being transferred."
          }
        }
      ],
      "ERC20InvalidApprover(address)": [
        {
          "details": "Indicates a failure with the `approver` of a token to be approved. Used in approvals.",
          "params": {
            "approver": "Address initiating an approval operation."
          }
        }
      ],
      "ERC20InvalidReceiver(address)": [
        {
          "details": "Indicates a failure with the token `receiver`. Used in transfers.",
          "params": {
            "receiver": "Address to which tokens are being transferred."
          }
        }
      ],
      "ERC20InvalidSender(address)": [
        {
          "details": "Indicates a failure with the token `sender`. Used in transfers.",
          "params": {
            "sender": "Address whose tokens are being transferred."
          }
        }
      ],
      "ERC20InvalidSpender(address)": [
        {
          "details": "Indicates a failure with the `spender` to be approved. Used in approvals.",
          "params": {
            "spender": "Address that may be allowed to operate on tokens without being their owner."
          }
        }
      ],
      "InvalidInitialization()": [
        {
          "details": "The contract is already initialized."
        }
      ],
      "NotInitializing()": [
        {
          "details": "The contract is not initializing."
        }
      ]
    },
    "events": {
      "Approval(address,address,uint256)": {
        "details": "Emitted when the allowance of a `spender` for an `owner` is set by a call to {approve}. `value` is the new allowance."
      },
      "Initialized(uint64)": {
        "details": "Triggered when the contract has been initialized or reinitialized."
      },
      "Transfer(address,address,uint256)": {
        "details": "Emitted when `value` tokens are moved from one account (`from`) to another (`to`). Note that `value` may be zero."
      }
    },
    "kind": "dev",
    "methods": {
      "allowance(address,address)": {
        "details": "See {IERC20-allowance}."
      },
      "approve(address,uint256)": {
        "details": "See {IERC20-approve}. NOTE: If `value` is the maximum `uint256`, the allowance is not updated on `transferFrom`. This is semantically equivalent to an infinite approval. Requirements: - `spender` cannot be the zero address."
      },
      "balanceOf(address)": {
        "details": "See {IERC20-balanceOf}."
      },
      "constructor": {
        "custom:oz-upgrades-unsafe-allow": "constructor"
      },
      "decimals()": {
        "details": "Returns the number of decimals used to get its user representation. For example, if `decimals` equals `2`, a balance of `505` tokens should be displayed to a user as `5.05` (`505 / 10 ** 2`). Tokens usually opt for a value of 18, imitating the relationship between Ether and Wei. This is the default value returned by this function, unless it's overridden. NOTE: This information is only used for _display_ purposes: it in no way affects any of the arithmetic of the contract, including {IERC20-balanceOf} and {IERC20-transfer}."
      },
      "name()": {
        "details": "Returns the name of the token."
      },
      "symbol()": {
        "details": "Returns the symbol of the token, usually a shorter version of the name."
      },
      "totalSupply()": {
        "details": "See {IERC20-totalSupply}."
      },
      "transfer(address,uint256)": {
        "details": "See {IERC20-transfer}. Requirements: - `to` cannot be the zero address. - the caller must have a balance of at least `value`."
      },
      "transferFrom(address,address,uint256)": {
        "details": "See {IERC20-transferFrom}. Skips emitting an {Approval} event indicating an allowance update. This is not required by the ERC. See {xref-ERC20-_approve-address-address-uint256-bool-}[_approve]. NOTE: Does not update the allowance if the current allowance is the maximum `uint256`. Requirements: - `from` and `to` cannot be the zero address. - `from` must have a balance of at least `value`. - the caller must have allowance for ``from``'s tokens of at least `value`."
      }
    },
    "version": 1
  },
  "userdoc": {
    "kind": "user",
    "methods": {},
    "version": 1
  }
}