{
  "contractName": "DataFeed",
  "abi": [
    {
      "inputs": [
        {
          "internalType": "address",
          "name": "_aggregatorAddress",
          "type": "address"
        }
      ],
      "stateMutability": "nonpayable",
      "type": "constructor"
    },
    {
      "inputs": [],
      "name": "getLatestData",
      "outputs": [
        {
          "internalType": "uint80",
          "name": "roundID",
          "type": "uint80"
        },
        {
          "internalType": "int256",
          "name": "answer",
          "type": "int256"
        },
        {
          "internalType": "uint256",
          "name": "startedAt",
          "type": "uint256"
        },
        {
          "internalType": "uint256",
          "name": "timeStamp",
          "type": "uint256"
        },
        {
          "internalType": "uint80",
          "name": "answeredInRound",
          "type": "uint80"
        }
      ],
      "stateMutability": "view",
      "type": "function",
      "constant": true
    },
    {
      "inputs": [
        {
          "internalType": "uint80",
          "name": "roundId",
          "type": "uint80"
        }
      ],
      "name": "getHistoricalData",
      "outputs": [
        {
          "internalType": "uint80",
          "name": "roundID",
          "type": "uint80"
        },
        {
          "internalType": "int256",
          "name": "answer",
          "type": "int256"
        },
        {
          "internalType": "uint256",
          "name": "startedAt",
          "type": "uint256"
        },
        {
          "internalType": "uint256",
          "name": "timeStamp",
          "type": "uint256"
        },
        {
          "internalType": "uint80",
          "name": "answeredInRound",
          "type": "uint80"
        }
      ],
      "stateMutability": "view",
      "type": "function",
      "constant": true
    }
  ],
  "bytecode": "0x608060405234801561001057600080fd5b506040516105663803806105668339818101604052810190610032919061008d565b806000806101000a81548173ffffffffffffffffffffffffffffffffffffffff021916908373ffffffffffffffffffffffffffffffffffffffff16021790555050610108565b600081519050610087816100f1565b92915050565b6000602082840312156100a3576100a26100ec565b5b60006100b184828501610078565b91505092915050565b60006100c5826100cc565b9050919050565b600073ffffffffffffffffffffffffffffffffffffffff82169050919050565b600080fd5b6100fa816100ba565b811461010557600080fd5b50565b61044f806101176000396000f3fe608060405234801561001057600080fd5b50600436106100365760003560e01c80632183c8ce1461003b578063ab757d611461006f575b600080fd5b61005560048036038101906100509190610262565b610091565b604051610066959493929190610352565b60405180910390f35b610077610156565b604051610088959493929190610352565b60405180910390f35b60008060008060008060009054906101000a900473ffffffffffffffffffffffffffffffffffffffff1673ffffffffffffffffffffffffffffffffffffffff16639a6fc8f5876040518263ffffffff1660e01b81526004016100f39190610337565b60a06040518083038186803b15801561010b57600080fd5b505afa15801561011f573d6000803e3d6000fd5b505050506040513d601f19601f82011682018060405250810190610143919061028f565b9450945094509450945091939590929450565b60008060008060008060009054906101000a900473ffffffffffffffffffffffffffffffffffffffff1673ffffffffffffffffffffffffffffffffffffffff1663feaf968c6040518163ffffffff1660e01b815260040160a06040518083038186803b1580156101c557600080fd5b505afa1580156101d9573d6000803e3d6000fd5b505050506040513d601f19601f820116820180604052508101906101fd919061028f565b945094509450945094509091929394565b60008151905061021d816103d4565b92915050565b600081519050610232816103eb565b92915050565b60008135905061024781610402565b92915050565b60008151905061025c81610402565b92915050565b600060208284031215610278576102776103cf565b5b600061028684828501610238565b91505092915050565b600080600080600060a086880312156102ab576102aa6103cf565b5b60006102b98882890161024d565b95505060206102ca8882890161020e565b94505060406102db88828901610223565b93505060606102ec88828901610223565b92505060806102fd8882890161024d565b9150509295509295909350565b610313816103a5565b82525050565b610322816103af565b82525050565b610331816103b9565b82525050565b600060208201905061034c6000830184610328565b92915050565b600060a0820190506103676000830188610328565b610374602083018761030a565b6103816040830186610319565b61038e6060830185610319565b61039b6080830184610328565b9695505050505050565b6000819050919050565b6000819050919050565b600069ffffffffffffffffffff82169050919050565b600080fd5b6103dd816103a5565b81146103e857600080fd5b50565b6103f4816103af565b81146103ff57600080fd5b50565b61040b816103b9565b811461041657600080fd5b5056fea26469706673582212206d4967f3a453210677e2abddbdc39dc70e3b8f59add91f854e9f04d714f31eb064736f6c63430008070033",
  "immutableReferences": {},
  "source": "// SPDX-License-Identifier: MIT\r\npragma solidity ^0.8.7;\r\n\r\nimport \"@chainlink/contracts/src/v0.8/interfaces/AggregatorV3Interface.sol\";\r\nimport \"@chainlink/contracts/src/v0.8/shared/interfaces/LinkTokenInterface.sol\";\r\n\r\ncontract DataFeed {\r\n  AggregatorV3Interface internal dataFeed;\r\n\r\n  constructor(address _aggregatorAddress) {\r\n    dataFeed = AggregatorV3Interface(_aggregatorAddress);\r\n  }\r\n\r\n  /**\r\n   * Returns the latest data feed.\r\n   */\r\n  function getLatestData() public view returns (uint80 roundID, \r\n                                                                   int answer, \r\n                                                                   uint startedAt, \r\n                                                                   uint timeStamp, \r\n                                                                   uint80 answeredInRound) {\r\n    return dataFeed.latestRoundData();\r\n  }\r\n\r\n  /**\r\n   * Returns the historical data feed by roundId.\r\n   */\r\n  function getHistoricalData(uint80 roundId) public view returns (uint80 roundID, \r\n                                                                  int answer, \r\n                                                                  uint startedAt, \r\n                                                                  uint timeStamp, \r\n                                                                  uint80 answeredInRound) {\r\n    return dataFeed.getRoundData(roundId);\r\n  }\r\n\r\n}",
  "sourcePath": "C:\\Users\\marco\\Desktop\\omof\\CODE GITHUB PUBLIC\\10 - Chainlink oracle data feeds\\smart contract\\contracts\\DataFeed.sol",
  "compiler": {
    "name": "solc",
    "version": "0.8.7+commit.e28d00a7.Emscripten.clang"
  },
  "schemaVersion": "3.4.8",
  "updatedAt": "2023-10-11T08:16:57.284Z",
  "networkType": "ethereum",
  "devdoc": {
    "kind": "dev",
    "methods": {},
    "version": 1
  },
  "userdoc": {
    "kind": "user",
    "methods": {
      "getHistoricalData(uint80)": {
        "notice": "Returns the historical data feed by roundId."
      },
      "getLatestData()": {
        "notice": "Returns the latest data feed."
      }
    },
    "version": 1
  }
}